{
  "_format": "hh-sol-artifact-1",
  "contractName": "DecentralizedBodaDispatch",
  "sourceName": "contracts/BodaDispatch.sol",
  "abi": [
    {
      "anonymous": false,
      "inputs": [
        {
          "indexed": false,
          "internalType": "address",
          "name": "client",
          "type": "address"
        },
        {
          "indexed": false,
          "internalType": "uint256",
          "name": "amount",
          "type": "uint256"
        }
      ],
      "name": "ClientDeposited",
      "type": "event"
    },
    {
      "anonymous": false,
      "inputs": [
        {
          "indexed": false,
          "internalType": "address",
          "name": "client",
          "type": "address"
        },
        {
          "indexed": false,
          "internalType": "uint256",
          "name": "clientId",
          "type": "uint256"
        }
      ],
      "name": "ClientRegistered",
      "type": "event"
    },
    {
      "anonymous": false,
      "inputs": [
        {
          "indexed": false,
          "internalType": "address",
          "name": "client",
          "type": "address"
        },
        {
          "indexed": false,
          "internalType": "uint256",
          "name": "amount",
          "type": "uint256"
        }
      ],
      "name": "ClientWithdraw",
      "type": "event"
    },
    {
      "anonymous": false,
      "inputs": [
        {
          "indexed": false,
          "internalType": "address",
          "name": "rider",
          "type": "address"
        },
        {
          "indexed": false,
          "internalType": "uint256",
          "name": "riderId",
          "type": "uint256"
        }
      ],
      "name": "RiderRegistered",
      "type": "event"
    },
    {
      "anonymous": false,
      "inputs": [
        {
          "indexed": false,
          "internalType": "address",
          "name": "rider",
          "type": "address"
        },
        {
          "indexed": false,
          "internalType": "uint256",
          "name": "amount",
          "type": "uint256"
        }
      ],
      "name": "RiderWithdraw",
      "type": "event"
    },
    {
      "anonymous": false,
      "inputs": [
        {
          "indexed": false,
          "internalType": "uint256",
          "name": "tripId",
          "type": "uint256"
        },
        {
          "indexed": false,
          "internalType": "address",
          "name": "rider",
          "type": "address"
        },
        {
          "indexed": false,
          "internalType": "uint256",
          "name": "updatedStars",
          "type": "uint256"
        }
      ],
      "name": "TripCompleted",
      "type": "event"
    },
    {
      "anonymous": false,
      "inputs": [
        {
          "indexed": false,
          "internalType": "uint256",
          "name": "tripId",
          "type": "uint256"
        },
        {
          "indexed": false,
          "internalType": "address",
          "name": "client",
          "type": "address"
        },
        {
          "indexed": false,
          "internalType": "address",
          "name": "rider",
          "type": "address"
        },
        {
          "indexed": false,
          "internalType": "uint256",
          "name": "fare",
          "type": "uint256"
        }
      ],
      "name": "TripStarted",
      "type": "event"
    },
    {
      "inputs": [
        {
          "internalType": "uint256",
          "name": "",
          "type": "uint256"
        }
      ],
      "name": "allRiders",
      "outputs": [
        {
          "internalType": "address",
          "name": "",
          "type": "address"
        }
      ],
      "stateMutability": "view",
      "type": "function"
    },
    {
      "inputs": [
        {
          "internalType": "bytes",
          "name": "",
          "type": "bytes"
        }
      ],
      "name": "checkUpkeep",
      "outputs": [
        {
          "internalType": "bool",
          "name": "upkeepNeeded",
          "type": "bool"
        },
        {
          "internalType": "bytes",
          "name": "performData",
          "type": "bytes"
        }
      ],
      "stateMutability": "view",
      "type": "function"
    },
    {
      "inputs": [],
      "name": "clientDeposit",
      "outputs": [],
      "stateMutability": "payable",
      "type": "function"
    },
    {
      "inputs": [
        {
          "internalType": "address",
          "name": "",
          "type": "address"
        }
      ],
      "name": "clientProfiles",
      "outputs": [
        {
          "internalType": "uint256",
          "name": "clientId",
          "type": "uint256"
        },
        {
          "internalType": "address",
          "name": "user",
          "type": "address"
        },
        {
          "internalType": "uint256",
          "name": "balance",
          "type": "uint256"
        },
        {
          "internalType": "bool",
          "name": "isRegistered",
          "type": "bool"
        },
        {
          "internalType": "bool",
          "name": "hasSomeBalance",
          "type": "bool"
        }
      ],
      "stateMutability": "view",
      "type": "function"
    },
    {
      "inputs": [
        {
          "internalType": "uint256",
          "name": "_amount",
          "type": "uint256"
        }
      ],
      "name": "clientWithdraw",
      "outputs": [],
      "stateMutability": "nonpayable",
      "type": "function"
    },
    {
      "inputs": [
        {
          "internalType": "uint256",
          "name": "_tripId",
          "type": "uint256"
        }
      ],
      "name": "completeTrip",
      "outputs": [],
      "stateMutability": "nonpayable",
      "type": "function"
    },
    {
      "inputs": [],
      "name": "getAllRiders",
      "outputs": [
        {
          "internalType": "address[]",
          "name": "",
          "type": "address[]"
        }
      ],
      "stateMutability": "view",
      "type": "function"
    },
    {
      "inputs": [
        {
          "internalType": "address",
          "name": "_client",
          "type": "address"
        }
      ],
      "name": "getClientInfo",
      "outputs": [
        {
          "components": [
            {
              "internalType": "uint256",
              "name": "clientId",
              "type": "uint256"
            },
            {
              "internalType": "address",
              "name": "user",
              "type": "address"
            },
            {
              "internalType": "uint256",
              "name": "balance",
              "type": "uint256"
            },
            {
              "internalType": "bool",
              "name": "isRegistered",
              "type": "bool"
            },
            {
              "internalType": "bool",
              "name": "hasSomeBalance",
              "type": "bool"
            }
          ],
          "internalType": "struct DecentralizedBodaDispatch.Client",
          "name": "",
          "type": "tuple"
        }
      ],
      "stateMutability": "view",
      "type": "function"
    },
    {
      "inputs": [
        {
          "internalType": "address",
          "name": "_rider",
          "type": "address"
        }
      ],
      "name": "getRiderInfo",
      "outputs": [
        {
          "components": [
            {
              "internalType": "uint256",
              "name": "riderId",
              "type": "uint256"
            },
            {
              "internalType": "address",
              "name": "user",
              "type": "address"
            },
            {
              "internalType": "uint256",
              "name": "earnings",
              "type": "uint256"
            },
            {
              "internalType": "uint256",
              "name": "stars",
              "type": "uint256"
            },
            {
              "internalType": "uint256",
              "name": "totalTrips",
              "type": "uint256"
            },
            {
              "internalType": "bool",
              "name": "isRegistered",
              "type": "bool"
            }
          ],
          "internalType": "struct DecentralizedBodaDispatch.Rider",
          "name": "",
          "type": "tuple"
        }
      ],
      "stateMutability": "view",
      "type": "function"
    },
    {
      "inputs": [
        {
          "internalType": "uint256",
          "name": "_tripId",
          "type": "uint256"
        }
      ],
      "name": "getTripDetails",
      "outputs": [
        {
          "components": [
            {
              "internalType": "uint256",
              "name": "tripId",
              "type": "uint256"
            },
            {
              "internalType": "address",
              "name": "rider",
              "type": "address"
            },
            {
              "internalType": "address",
              "name": "client",
              "type": "address"
            },
            {
              "internalType": "uint256",
              "name": "fare",
              "type": "uint256"
            },
            {
              "internalType": "bool",
              "name": "isCompleted",
              "type": "bool"
            },
            {
              "internalType": "bool",
              "name": "isPaidOut",
              "type": "bool"
            }
          ],
          "internalType": "struct DecentralizedBodaDispatch.Trip",
          "name": "",
          "type": "tuple"
        }
      ],
      "stateMutability": "view",
      "type": "function"
    },
    {
      "inputs": [],
      "name": "nextClientId",
      "outputs": [
        {
          "internalType": "uint256",
          "name": "",
          "type": "uint256"
        }
      ],
      "stateMutability": "view",
      "type": "function"
    },
    {
      "inputs": [],
      "name": "nextRiderId",
      "outputs": [
        {
          "internalType": "uint256",
          "name": "",
          "type": "uint256"
        }
      ],
      "stateMutability": "view",
      "type": "function"
    },
    {
      "inputs": [],
      "name": "nextTripId",
      "outputs": [
        {
          "internalType": "uint256",
          "name": "",
          "type": "uint256"
        }
      ],
      "stateMutability": "view",
      "type": "function"
    },
    {
      "inputs": [
        {
          "internalType": "bytes",
          "name": "performData",
          "type": "bytes"
        }
      ],
      "name": "performUpkeep",
      "outputs": [],
      "stateMutability": "nonpayable",
      "type": "function"
    },
    {
      "inputs": [],
      "name": "registerClient",
      "outputs": [],
      "stateMutability": "nonpayable",
      "type": "function"
    },
    {
      "inputs": [],
      "name": "registerRider",
      "outputs": [],
      "stateMutability": "nonpayable",
      "type": "function"
    },
    {
      "inputs": [
        {
          "internalType": "uint256",
          "name": "_tripId",
          "type": "uint256"
        }
      ],
      "name": "rewardTripRiderByFare",
      "outputs": [],
      "stateMutability": "nonpayable",
      "type": "function"
    },
    {
      "inputs": [
        {
          "internalType": "address",
          "name": "",
          "type": "address"
        }
      ],
      "name": "riderProfiles",
      "outputs": [
        {
          "internalType": "uint256",
          "name": "riderId",
          "type": "uint256"
        },
        {
          "internalType": "address",
          "name": "user",
          "type": "address"
        },
        {
          "internalType": "uint256",
          "name": "earnings",
          "type": "uint256"
        },
        {
          "internalType": "uint256",
          "name": "stars",
          "type": "uint256"
        },
        {
          "internalType": "uint256",
          "name": "totalTrips",
          "type": "uint256"
        },
        {
          "internalType": "bool",
          "name": "isRegistered",
          "type": "bool"
        }
      ],
      "stateMutability": "view",
      "type": "function"
    },
    {
      "inputs": [
        {
          "internalType": "uint256",
          "name": "_amount",
          "type": "uint256"
        }
      ],
      "name": "riderWithdrawEarnings",
      "outputs": [],
      "stateMutability": "nonpayable",
      "type": "function"
    },
    {
      "inputs": [
        {
          "internalType": "address",
          "name": "_rider",
          "type": "address"
        },
        {
          "internalType": "uint256",
          "name": "_fare",
          "type": "uint256"
        }
      ],
      "name": "startTrip",
      "outputs": [],
      "stateMutability": "nonpayable",
      "type": "function"
    },
    {
      "inputs": [
        {
          "internalType": "uint256",
          "name": "",
          "type": "uint256"
        }
      ],
      "name": "trips",
      "outputs": [
        {
          "internalType": "uint256",
          "name": "tripId",
          "type": "uint256"
        },
        {
          "internalType": "address",
          "name": "rider",
          "type": "address"
        },
        {
          "internalType": "address",
          "name": "client",
          "type": "address"
        },
        {
          "internalType": "uint256",
          "name": "fare",
          "type": "uint256"
        },
        {
          "internalType": "bool",
          "name": "isCompleted",
          "type": "bool"
        },
        {
          "internalType": "bool",
          "name": "isPaidOut",
          "type": "bool"
        }
      ],
      "stateMutability": "view",
      "type": "function"
    },
    {
      "stateMutability": "payable",
      "type": "receive"
    }
  ],
  "bytecode": "0x6080604052348015600f57600080fd5b50612ebc8061001f6000396000f3fe60806040526004361061012e5760003560e01c80638921a346116100ab578063d39069201161006f578063d3906920146103ed578063de2494211461042e578063ea1d922514610457578063ecb9614014610494578063f07ff641146104bf578063f6824a7c146104c957610135565b80638921a34614610317578063adab826414610342578063b2d2b68a14610359578063c1917e7914610382578063c7c340d5146103ab57610135565b80636b798218116100f25780636b798218146102315780636d9fb2871461025a5780636e04ff0d14610271578063773256a3146102af5780637816e2ed146102ec57610135565b8063124c128e1461013a5780633a3cd0621461017757806343129a1d146101a05780634585e33b146101dd5780635a4a192d1461020657610135565b3661013557005b600080fd5b34801561014657600080fd5b50610161600480360381019061015c9190611f96565b61050b565b60405161016e91906120a9565b60405180910390f35b34801561018357600080fd5b5061019e60048036038101906101999190611f96565b61062d565b005b3480156101ac57600080fd5b506101c760048036038101906101c291906120f0565b610828565b6040516101d49190612185565b60405180910390f35b3480156101e957600080fd5b5061020460048036038101906101ff9190612205565b610921565b005b34801561021257600080fd5b5061021b610942565b6040516102289190612301565b60405180910390f35b34801561023d57600080fd5b5061025860048036038101906102539190612323565b6109d0565b005b34801561026657600080fd5b5061026f610d6d565b005b34801561027d57600080fd5b5061029860048036038101906102939190612205565b610f75565b6040516102a6929190612402565b60405180910390f35b3480156102bb57600080fd5b506102d660048036038101906102d19190611f96565b61110f565b6040516102e39190612441565b60405180910390f35b3480156102f857600080fd5b5061030161114e565b60405161030e919061246b565b60405180910390f35b34801561032357600080fd5b5061032c611154565b604051610339919061246b565b60405180910390f35b34801561034e57600080fd5b5061035761115a565b005b34801561036557600080fd5b50610380600480360381019061037b9190611f96565b6113be565b005b34801561038e57600080fd5b506103a960048036038101906103a49190611f96565b6115b9565b005b3480156103b757600080fd5b506103d260048036038101906103cd91906120f0565b611763565b6040516103e496959493929190612486565b60405180910390f35b3480156103f957600080fd5b50610414600480360381019061040f91906120f0565b6117cc565b6040516104259594939291906124e7565b60405180910390f35b34801561043a57600080fd5b5061045560048036038101906104509190611f96565b61183c565b005b34801561046357600080fd5b5061047e600480360381019061047991906120f0565b611b0a565b60405161048b91906125b5565b60405180910390f35b3480156104a057600080fd5b506104a9611bfc565b6040516104b6919061246b565b60405180910390f35b6104c7611c02565b005b3480156104d557600080fd5b506104f060048036038101906104eb9190611f96565b611dc3565b604051610502969594939291906125d0565b60405180910390f35b610513611e59565b6000808381526020019081526020016000206040518060c0016040529081600082015481526020016001820160009054906101000a900473ffffffffffffffffffffffffffffffffffffffff1673ffffffffffffffffffffffffffffffffffffffff1673ffffffffffffffffffffffffffffffffffffffff1681526020016002820160009054906101000a900473ffffffffffffffffffffffffffffffffffffffff1673ffffffffffffffffffffffffffffffffffffffff1673ffffffffffffffffffffffffffffffffffffffff168152602001600382015481526020016004820160009054906101000a900460ff161515151581526020016004820160019054906101000a900460ff1615151515815250509050919050565b600560003373ffffffffffffffffffffffffffffffffffffffff1673ffffffffffffffffffffffffffffffffffffffff16815260200190815260200160002060030160009054906101000a900460ff166106bc576040517f08c379a00000000000000000000000000000000000000000000000000000000081526004016106b39061268e565b60405180910390fd5b6000600560003373ffffffffffffffffffffffffffffffffffffffff1673ffffffffffffffffffffffffffffffffffffffff168152602001908152602001600020905060008211610742576040517f08c379a0000000000000000000000000000000000000000000000000000000008152600401610739906126fa565b60405180910390fd5b8181600201541015610789576040517f08c379a000000000000000000000000000000000000000000000000000000000815260040161078090612766565b60405180910390fd5b8181600201600082825461079d91906127b5565b925050819055503373ffffffffffffffffffffffffffffffffffffffff166108fc839081150290604051600060405180830381858888f193505050501580156107ea573d6000803e3d6000fd5b507f640b104539d8d667d0fc38e47a122d99e56c86d9340e622664a89b5b5f92a20f338360405161081c9291906127e9565b60405180910390a15050565b610830611ebf565b600560008373ffffffffffffffffffffffffffffffffffffffff1673ffffffffffffffffffffffffffffffffffffffff1681526020019081526020016000206040518060a0016040529081600082015481526020016001820160009054906101000a900473ffffffffffffffffffffffffffffffffffffffff1673ffffffffffffffffffffffffffffffffffffffff1673ffffffffffffffffffffffffffffffffffffffff168152602001600282015481526020016003820160009054906101000a900460ff161515151581526020016003820160019054906101000a900460ff1615151515815250509050919050565b600082828101906109329190611f96565b905061093d8161183c565b505050565b606060048054806020026020016040519081016040528092919081815260200182805480156109c657602002820191906000526020600020905b8160009054906101000a900473ffffffffffffffffffffffffffffffffffffffff1673ffffffffffffffffffffffffffffffffffffffff168152602001906001019080831161097c575b5050505050905090565b600560003373ffffffffffffffffffffffffffffffffffffffff1673ffffffffffffffffffffffffffffffffffffffff16815260200190815260200160002060030160009054906101000a900460ff16610a5f576040517f08c379a0000000000000000000000000000000000000000000000000000000008152600401610a569061268e565b60405180910390fd5b600260008373ffffffffffffffffffffffffffffffffffffffff1673ffffffffffffffffffffffffffffffffffffffff16815260200190815260200160002060050160009054906101000a900460ff16610aee576040517f08c379a0000000000000000000000000000000000000000000000000000000008152600401610ae59061285e565b60405180910390fd5b80600560003373ffffffffffffffffffffffffffffffffffffffff1673ffffffffffffffffffffffffffffffffffffffff168152602001908152602001600020600201541015610b73576040517f08c379a0000000000000000000000000000000000000000000000000000000008152600401610b6a906128ca565b60405180910390fd5b60008111610bb6576040517f08c379a0000000000000000000000000000000000000000000000000000000008152600401610bad90612936565b60405180910390fd5b600060015490506040518060c001604052808281526020018473ffffffffffffffffffffffffffffffffffffffff1681526020013373ffffffffffffffffffffffffffffffffffffffff168152602001838152602001600015158152602001600015158152506000808381526020019081526020016000206000820151816000015560208201518160010160006101000a81548173ffffffffffffffffffffffffffffffffffffffff021916908373ffffffffffffffffffffffffffffffffffffffff16021790555060408201518160020160006101000a81548173ffffffffffffffffffffffffffffffffffffffff021916908373ffffffffffffffffffffffffffffffffffffffff1602179055506060820151816003015560808201518160040160006101000a81548160ff02191690831515021790555060a08201518160040160016101000a81548160ff0219169083151502179055509050507f955e31c9476371c1919457ec13707a9298d5deab3c40f7931b694d1fd8888d9881338585604051610d489493929190612956565b60405180910390a160016000815480929190610d639061299b565b9190505550505050565b600560003373ffffffffffffffffffffffffffffffffffffffff1673ffffffffffffffffffffffffffffffffffffffff16815260200190815260200160002060030160009054906101000a900460ff1615610dfd576040517f08c379a0000000000000000000000000000000000000000000000000000000008152600401610df490612a2f565b60405180910390fd5b6040518060a0016040528060065481526020013373ffffffffffffffffffffffffffffffffffffffff1681526020016000815260200160011515815260200160001515815250600560003373ffffffffffffffffffffffffffffffffffffffff1673ffffffffffffffffffffffffffffffffffffffff1681526020019081526020016000206000820151816000015560208201518160010160006101000a81548173ffffffffffffffffffffffffffffffffffffffff021916908373ffffffffffffffffffffffffffffffffffffffff1602179055506040820151816002015560608201518160030160006101000a81548160ff02191690831515021790555060808201518160030160016101000a81548160ff0219169083151502179055509050507f3c955a3187c7e83dcbb8616841ccd3d715ab7a5e6928b8195535cced27e6f0b433600654604051610f539291906127e9565b60405180910390a160066000815480929190610f6e9061299b565b9190505550565b6000606060005b6001548110156110f05760008060008381526020019081526020016000206040518060c0016040529081600082015481526020016001820160009054906101000a900473ffffffffffffffffffffffffffffffffffffffff1673ffffffffffffffffffffffffffffffffffffffff1673ffffffffffffffffffffffffffffffffffffffff1681526020016002820160009054906101000a900473ffffffffffffffffffffffffffffffffffffffff1673ffffffffffffffffffffffffffffffffffffffff1673ffffffffffffffffffffffffffffffffffffffff168152602001600382015481526020016004820160009054906101000a900460ff161515151581526020016004820160019054906101000a900460ff1615151515815250509050806080015180156110b057508060a00151155b156110e2576001826040516020016110c8919061246b565b604051602081830303815290604052935093505050611108565b508080600101915050610f7c565b50600060405180602001604052806000815250915091505b9250929050565b6004818154811061111f57600080fd5b906000526020600020016000915054906101000a900473ffffffffffffffffffffffffffffffffffffffff1681565b60065481565b60015481565b600260003373ffffffffffffffffffffffffffffffffffffffff1673ffffffffffffffffffffffffffffffffffffffff16815260200190815260200160002060050160009054906101000a900460ff16156111ea576040517f08c379a00000000000000000000000000000000000000000000000000000000081526004016111e190612a9b565b60405180910390fd5b6040518060c0016040528060035481526020013373ffffffffffffffffffffffffffffffffffffffff16815260200160008152602001600081526020016000815260200160011515815250600260003373ffffffffffffffffffffffffffffffffffffffff1673ffffffffffffffffffffffffffffffffffffffff1681526020019081526020016000206000820151816000015560208201518160010160006101000a81548173ffffffffffffffffffffffffffffffffffffffff021916908373ffffffffffffffffffffffffffffffffffffffff16021790555060408201518160020155606082015181600301556080820151816004015560a08201518160050160006101000a81548160ff0219169083151502179055509050506004339080600181540180825580915050600190039060005260206000200160009091909190916101000a81548173ffffffffffffffffffffffffffffffffffffffff021916908373ffffffffffffffffffffffffffffffffffffffff1602179055507fc417e69cc85f56ac8495757dceb63eb538181d06b65962fa7a523608f0490ac43360035460405161139c9291906127e9565b60405180910390a1600360008154809291906113b79061299b565b9190505550565b600260003373ffffffffffffffffffffffffffffffffffffffff1673ffffffffffffffffffffffffffffffffffffffff16815260200190815260200160002060050160009054906101000a900460ff1661144d576040517f08c379a000000000000000000000000000000000000000000000000000000000815260040161144490612b07565b60405180910390fd5b6000600260003373ffffffffffffffffffffffffffffffffffffffff1673ffffffffffffffffffffffffffffffffffffffff1681526020019081526020016000209050600082116114d3576040517f08c379a00000000000000000000000000000000000000000000000000000000081526004016114ca906126fa565b60405180910390fd5b818160020154101561151a576040517f08c379a000000000000000000000000000000000000000000000000000000000815260040161151190612b73565b60405180910390fd5b8181600201600082825461152e91906127b5565b925050819055503373ffffffffffffffffffffffffffffffffffffffff166108fc839081150290604051600060405180830381858888f1935050505015801561157b573d6000803e3d6000fd5b507fd99c55dd38c6e06bcc3bd5dda0cb5e07e70dd24eee1bdcb0d940a2bc81b133dd33836040516115ad9291906127e9565b60405180910390a15050565b600560003373ffffffffffffffffffffffffffffffffffffffff1673ffffffffffffffffffffffffffffffffffffffff16815260200190815260200160002060030160009054906101000a900460ff16611648576040517f08c379a000000000000000000000000000000000000000000000000000000000815260040161163f9061268e565b60405180910390fd5b600080600083815260200190815260200160002090508060020160009054906101000a900473ffffffffffffffffffffffffffffffffffffffff1673ffffffffffffffffffffffffffffffffffffffff163373ffffffffffffffffffffffffffffffffffffffff16146116f0576040517f08c379a00000000000000000000000000000000000000000000000000000000081526004016116e790612bdf565b60405180910390fd5b8060040160009054906101000a900460ff1615611742576040517f08c379a000000000000000000000000000000000000000000000000000000000815260040161173990612c4b565b60405180910390fd5b60018160040160006101000a81548160ff0219169083151502179055505050565b60026020528060005260406000206000915090508060000154908060010160009054906101000a900473ffffffffffffffffffffffffffffffffffffffff16908060020154908060030154908060040154908060050160009054906101000a900460ff16905086565b60056020528060005260406000206000915090508060000154908060010160009054906101000a900473ffffffffffffffffffffffffffffffffffffffff16908060020154908060030160009054906101000a900460ff16908060030160019054906101000a900460ff16905085565b600080600083815260200190815260200160002090508060040160009054906101000a900460ff166118a3576040517f08c379a000000000000000000000000000000000000000000000000000000000815260040161189a90612cb7565b60405180910390fd5b8060040160019054906101000a900460ff16156118f5576040517f08c379a00000000000000000000000000000000000000000000000000000000081526004016118ec90612d23565b60405180910390fd5b6000600560008360020160009054906101000a900473ffffffffffffffffffffffffffffffffffffffff1673ffffffffffffffffffffffffffffffffffffffff1673ffffffffffffffffffffffffffffffffffffffff16815260200190815260200160002090506000600260008460010160009054906101000a900473ffffffffffffffffffffffffffffffffffffffff1673ffffffffffffffffffffffffffffffffffffffff1673ffffffffffffffffffffffffffffffffffffffff1681526020019081526020016000209050826003015482600201541015611a0e576040517f08c379a0000000000000000000000000000000000000000000000000000000008152600401611a0590612d8f565b60405180910390fd5b8260030154826002016000828254611a2691906127b5565b925050819055508260030154816002016000828254611a459190612daf565b925050819055506001816003016000828254611a619190612daf565b925050819055506001816004016000828254611a7d9190612daf565b9250508190555060018360040160016101000a81548160ff0219169083151502179055507f4c3ab42fece79b0f300ffbd9f5816668d48bd567031eb873e4d97dada6abd352848460010160009054906101000a900473ffffffffffffffffffffffffffffffffffffffff168360030154604051611afc93929190612de3565b60405180910390a150505050565b611b12611f08565b600260008373ffffffffffffffffffffffffffffffffffffffff1673ffffffffffffffffffffffffffffffffffffffff1681526020019081526020016000206040518060c0016040529081600082015481526020016001820160009054906101000a900473ffffffffffffffffffffffffffffffffffffffff1673ffffffffffffffffffffffffffffffffffffffff1673ffffffffffffffffffffffffffffffffffffffff1681526020016002820154815260200160038201548152602001600482015481526020016005820160009054906101000a900460ff1615151515815250509050919050565b60035481565b600560003373ffffffffffffffffffffffffffffffffffffffff1673ffffffffffffffffffffffffffffffffffffffff16815260200190815260200160002060030160009054906101000a900460ff16611c91576040517f08c379a0000000000000000000000000000000000000000000000000000000008152600401611c889061268e565b60405180910390fd5b60003411611cd4576040517f08c379a0000000000000000000000000000000000000000000000000000000008152600401611ccb90612e66565b60405180910390fd5b34600560003373ffffffffffffffffffffffffffffffffffffffff1673ffffffffffffffffffffffffffffffffffffffff1681526020019081526020016000206002016000828254611d269190612daf565b925050819055506001600560003373ffffffffffffffffffffffffffffffffffffffff1673ffffffffffffffffffffffffffffffffffffffff16815260200190815260200160002060030160016101000a81548160ff0219169083151502179055507f1a1293d7af3357cec67893722572b0342502edfe63a5fd97b5d68cb68321d9b13334604051611db99291906127e9565b60405180910390a1565b60006020528060005260406000206000915090508060000154908060010160009054906101000a900473ffffffffffffffffffffffffffffffffffffffff16908060020160009054906101000a900473ffffffffffffffffffffffffffffffffffffffff16908060030154908060040160009054906101000a900460ff16908060040160019054906101000a900460ff16905086565b6040518060c0016040528060008152602001600073ffffffffffffffffffffffffffffffffffffffff168152602001600073ffffffffffffffffffffffffffffffffffffffff168152602001600081526020016000151581526020016000151581525090565b6040518060a0016040528060008152602001600073ffffffffffffffffffffffffffffffffffffffff168152602001600081526020016000151581526020016000151581525090565b6040518060c0016040528060008152602001600073ffffffffffffffffffffffffffffffffffffffff1681526020016000815260200160008152602001600081526020016000151581525090565b600080fd5b600080fd5b6000819050919050565b611f7381611f60565b8114611f7e57600080fd5b50565b600081359050611f9081611f6a565b92915050565b600060208284031215611fac57611fab611f56565b5b6000611fba84828501611f81565b91505092915050565b611fcc81611f60565b82525050565b600073ffffffffffffffffffffffffffffffffffffffff82169050919050565b6000611ffd82611fd2565b9050919050565b61200d81611ff2565b82525050565b60008115159050919050565b61202881612013565b82525050565b60c0820160008201516120446000850182611fc3565b5060208201516120576020850182612004565b50604082015161206a6040850182612004565b50606082015161207d6060850182611fc3565b506080820151612090608085018261201f565b5060a08201516120a360a085018261201f565b50505050565b600060c0820190506120be600083018461202e565b92915050565b6120cd81611ff2565b81146120d857600080fd5b50565b6000813590506120ea816120c4565b92915050565b60006020828403121561210657612105611f56565b5b6000612114848285016120db565b91505092915050565b60a0820160008201516121336000850182611fc3565b5060208201516121466020850182612004565b5060408201516121596040850182611fc3565b50606082015161216c606085018261201f565b50608082015161217f608085018261201f565b50505050565b600060a08201905061219a600083018461211d565b92915050565b600080fd5b600080fd5b600080fd5b60008083601f8401126121c5576121c46121a0565b5b8235905067ffffffffffffffff8111156121e2576121e16121a5565b5b6020830191508360018202830111156121fe576121fd6121aa565b5b9250929050565b6000806020838503121561221c5761221b611f56565b5b600083013567ffffffffffffffff81111561223a57612239611f5b565b5b612246858286016121af565b92509250509250929050565b600081519050919050565b600082825260208201905092915050565b6000819050602082019050919050565b600061228a8383612004565b60208301905092915050565b6000602082019050919050565b60006122ae82612252565b6122b8818561225d565b93506122c38361226e565b8060005b838110156122f45781516122db888261227e565b97506122e683612296565b9250506001810190506122c7565b5085935050505092915050565b6000602082019050818103600083015261231b81846122a3565b905092915050565b6000806040838503121561233a57612339611f56565b5b6000612348858286016120db565b925050602061235985828601611f81565b9150509250929050565b61236c81612013565b82525050565b600081519050919050565b600082825260208201905092915050565b60005b838110156123ac578082015181840152602081019050612391565b60008484015250505050565b6000601f19601f8301169050919050565b60006123d482612372565b6123de818561237d565b93506123ee81856020860161238e565b6123f7816123b8565b840191505092915050565b60006040820190506124176000830185612363565b818103602083015261242981846123c9565b90509392505050565b61243b81611ff2565b82525050565b60006020820190506124566000830184612432565b92915050565b61246581611f60565b82525050565b6000602082019050612480600083018461245c565b92915050565b600060c08201905061249b600083018961245c565b6124a86020830188612432565b6124b5604083018761245c565b6124c2606083018661245c565b6124cf608083018561245c565b6124dc60a0830184612363565b979650505050505050565b600060a0820190506124fc600083018861245c565b6125096020830187612432565b612516604083018661245c565b6125236060830185612363565b6125306080830184612363565b9695505050505050565b60c0820160008201516125506000850182611fc3565b5060208201516125636020850182612004565b5060408201516125766040850182611fc3565b5060608201516125896060850182611fc3565b50608082015161259c6080850182611fc3565b5060a08201516125af60a085018261201f565b50505050565b600060c0820190506125ca600083018461253a565b92915050565b600060c0820190506125e5600083018961245c565b6125f26020830188612432565b6125ff6040830187612432565b61260c606083018661245c565b6126196080830185612363565b61262660a0830184612363565b979650505050505050565b600082825260208201905092915050565b7f4e6f74206120636c69656e740000000000000000000000000000000000000000600082015250565b6000612678600c83612631565b915061268382612642565b602082019050919050565b600060208201905081810360008301526126a78161266b565b9050919050565b7f496e76616c696420616d6f756e74000000000000000000000000000000000000600082015250565b60006126e4600e83612631565b91506126ef826126ae565b602082019050919050565b60006020820190508181036000830152612713816126d7565b9050919050565b7f4e6f7420656e6f7567682062616c616e63650000000000000000000000000000600082015250565b6000612750601283612631565b915061275b8261271a565b602082019050919050565b6000602082019050818103600083015261277f81612743565b9050919050565b7f4e487b7100000000000000000000000000000000000000000000000000000000600052601160045260246000fd5b60006127c082611f60565b91506127cb83611f60565b92508282039050818111156127e3576127e2612786565b5b92915050565b60006040820190506127fe6000830185612432565b61280b602083018461245c565b9392505050565b7f496e76616c696420726964657200000000000000000000000000000000000000600082015250565b6000612848600d83612631565b915061285382612812565b602082019050919050565b600060208201905081810360008301526128778161283b565b9050919050565b7f496e73756666696369656e742062616c616e6365000000000000000000000000600082015250565b60006128b4601483612631565b91506128bf8261287e565b602082019050919050565b600060208201905081810360008301526128e3816128a7565b9050919050565b7f46617265206d757374206265203e203000000000000000000000000000000000600082015250565b6000612920601083612631565b915061292b826128ea565b602082019050919050565b6000602082019050818103600083015261294f81612913565b9050919050565b600060808201905061296b600083018761245c565b6129786020830186612432565b6129856040830185612432565b612992606083018461245c565b95945050505050565b60006129a682611f60565b91507fffffffffffffffffffffffffffffffffffffffffffffffffffffffffffffffff82036129d8576129d7612786565b5b600182019050919050565b7f416c7265616479207265676973746572656420617320636c69656e7400000000600082015250565b6000612a19601c83612631565b9150612a24826129e3565b602082019050919050565b60006020820190508181036000830152612a4881612a0c565b9050919050565b7f416c726561647920726567697374657265642061732072696465720000000000600082015250565b6000612a85601b83612631565b9150612a9082612a4f565b602082019050919050565b60006020820190508181036000830152612ab481612a78565b9050919050565b7f4e6f742061207269646572000000000000000000000000000000000000000000600082015250565b6000612af1600b83612631565b9150612afc82612abb565b602082019050919050565b60006020820190508181036000830152612b2081612ae4565b9050919050565b7f496e73756666696369656e74206561726e696e67730000000000000000000000600082015250565b6000612b5d601583612631565b9150612b6882612b27565b602082019050919050565b60006020820190508181036000830152612b8c81612b50565b9050919050565b7f4f6e6c7920636c69656e742063616e20636f6d706c6574652074726970000000600082015250565b6000612bc9601d83612631565b9150612bd482612b93565b602082019050919050565b60006020820190508181036000830152612bf881612bbc565b9050919050565b7f5472697020616c726561647920636f6d706c6574656400000000000000000000600082015250565b6000612c35601683612631565b9150612c4082612bff565b602082019050919050565b60006020820190508181036000830152612c6481612c28565b9050919050565b7f54726970206e6f7420636f6d706c657465000000000000000000000000000000600082015250565b6000612ca1601183612631565b9150612cac82612c6b565b602082019050919050565b60006020820190508181036000830152612cd081612c94565b9050919050565b7f416c726561647920706169640000000000000000000000000000000000000000600082015250565b6000612d0d600c83612631565b9150612d1882612cd7565b602082019050919050565b60006020820190508181036000830152612d3c81612d00565b9050919050565b7f496e73756666696369656e7420636c69656e742062616c616e63650000000000600082015250565b6000612d79601b83612631565b9150612d8482612d43565b602082019050919050565b60006020820190508181036000830152612da881612d6c565b9050919050565b6000612dba82611f60565b9150612dc583611f60565b9250828201905080821115612ddd57612ddc612786565b5b92915050565b6000606082019050612df8600083018661245c565b612e056020830185612432565b612e12604083018461245c565b949350505050565b7f4d7573742073656e6420736f6d65204554480000000000000000000000000000600082015250565b6000612e50601283612631565b9150612e5b82612e1a565b602082019050919050565b60006020820190508181036000830152612e7f81612e43565b905091905056fea26469706673582212202714c841177e38c17a66cd4e36ff896050dacd1c62ef36c3da144e2439c23eaa64736f6c634300081c0033",
  "linkReferences": {},
  "deployedLinkReferences": {}
}