{
  "_format": "hh-sol-artifact-1",
  "contractName": "DecentralizedBodaDispatch",
  "sourceName": "contracts/BodaDispatch.sol",
  "abi": [
    {
      "anonymous": false,
      "inputs": [
        {
          "indexed": false,
          "internalType": "address",
          "name": "client",
          "type": "address"
        },
        {
          "indexed": false,
          "internalType": "uint256",
          "name": "amount",
          "type": "uint256"
        }
      ],
      "name": "ClientDeposited",
      "type": "event"
    },
    {
      "anonymous": false,
      "inputs": [
        {
          "indexed": false,
          "internalType": "address",
          "name": "client",
          "type": "address"
        },
        {
          "indexed": false,
          "internalType": "uint256",
          "name": "clientId",
          "type": "uint256"
        }
      ],
      "name": "ClientRegistered",
      "type": "event"
    },
    {
      "anonymous": false,
      "inputs": [
        {
          "indexed": false,
          "internalType": "address",
          "name": "client",
          "type": "address"
        },
        {
          "indexed": false,
          "internalType": "uint256",
          "name": "amount",
          "type": "uint256"
        }
      ],
      "name": "ClientWithdraw",
      "type": "event"
    },
    {
      "anonymous": false,
      "inputs": [
        {
          "indexed": false,
          "internalType": "address",
          "name": "rider",
          "type": "address"
        },
        {
          "indexed": false,
          "internalType": "uint256",
          "name": "riderId",
          "type": "uint256"
        }
      ],
      "name": "RiderRegistered",
      "type": "event"
    },
    {
      "anonymous": false,
      "inputs": [
        {
          "indexed": false,
          "internalType": "address",
          "name": "rider",
          "type": "address"
        },
        {
          "indexed": false,
          "internalType": "uint256",
          "name": "amount",
          "type": "uint256"
        }
      ],
      "name": "RiderWithdraw",
      "type": "event"
    },
    {
      "anonymous": false,
      "inputs": [
        {
          "indexed": false,
          "internalType": "uint256",
          "name": "tripId",
          "type": "uint256"
        },
        {
          "indexed": false,
          "internalType": "address",
          "name": "rider",
          "type": "address"
        },
        {
          "indexed": false,
          "internalType": "uint256",
          "name": "updatedStars",
          "type": "uint256"
        }
      ],
      "name": "TripCompleted",
      "type": "event"
    },
    {
      "anonymous": false,
      "inputs": [
        {
          "indexed": false,
          "internalType": "uint256",
          "name": "tripId",
          "type": "uint256"
        },
        {
          "indexed": false,
          "internalType": "address",
          "name": "client",
          "type": "address"
        },
        {
          "indexed": false,
          "internalType": "address",
          "name": "rider",
          "type": "address"
        },
        {
          "indexed": false,
          "internalType": "uint256",
          "name": "fare",
          "type": "uint256"
        }
      ],
      "name": "TripStarted",
      "type": "event"
    },
    {
      "inputs": [],
      "name": "clientDeposit",
      "outputs": [],
      "stateMutability": "payable",
      "type": "function"
    },
    {
      "inputs": [
        {
          "internalType": "address",
          "name": "",
          "type": "address"
        }
      ],
      "name": "clientProfiles",
      "outputs": [
        {
          "internalType": "uint256",
          "name": "clientId",
          "type": "uint256"
        },
        {
          "internalType": "address",
          "name": "user",
          "type": "address"
        },
        {
          "internalType": "uint256",
          "name": "totalSpent",
          "type": "uint256"
        },
        {
          "internalType": "uint256",
          "name": "balance",
          "type": "uint256"
        },
        {
          "internalType": "bool",
          "name": "isRegistered",
          "type": "bool"
        },
        {
          "internalType": "bool",
          "name": "hasSomeBalance",
          "type": "bool"
        }
      ],
      "stateMutability": "view",
      "type": "function"
    },
    {
      "inputs": [
        {
          "internalType": "uint256",
          "name": "_amount",
          "type": "uint256"
        }
      ],
      "name": "clientWithdraw",
      "outputs": [],
      "stateMutability": "nonpayable",
      "type": "function"
    },
    {
      "inputs": [
        {
          "internalType": "uint256",
          "name": "_tripId",
          "type": "uint256"
        }
      ],
      "name": "completeTrip",
      "outputs": [],
      "stateMutability": "nonpayable",
      "type": "function"
    },
    {
      "inputs": [
        {
          "internalType": "address",
          "name": "_client",
          "type": "address"
        }
      ],
      "name": "getClientInfo",
      "outputs": [
        {
          "components": [
            {
              "internalType": "uint256",
              "name": "clientId",
              "type": "uint256"
            },
            {
              "internalType": "address",
              "name": "user",
              "type": "address"
            },
            {
              "internalType": "uint256",
              "name": "totalSpent",
              "type": "uint256"
            },
            {
              "internalType": "uint256",
              "name": "balance",
              "type": "uint256"
            },
            {
              "internalType": "bool",
              "name": "isRegistered",
              "type": "bool"
            },
            {
              "internalType": "bool",
              "name": "hasSomeBalance",
              "type": "bool"
            }
          ],
          "internalType": "struct DecentralizedBodaDispatch.Client",
          "name": "",
          "type": "tuple"
        }
      ],
      "stateMutability": "view",
      "type": "function"
    },
    {
      "inputs": [
        {
          "internalType": "address",
          "name": "_rider",
          "type": "address"
        }
      ],
      "name": "getRiderInfo",
      "outputs": [
        {
          "components": [
            {
              "internalType": "uint256",
              "name": "riderId",
              "type": "uint256"
            },
            {
              "internalType": "address",
              "name": "user",
              "type": "address"
            },
            {
              "internalType": "uint256",
              "name": "earnings",
              "type": "uint256"
            },
            {
              "internalType": "uint256",
              "name": "stars",
              "type": "uint256"
            },
            {
              "internalType": "uint256",
              "name": "totalTrips",
              "type": "uint256"
            },
            {
              "internalType": "bool",
              "name": "isRegistered",
              "type": "bool"
            }
          ],
          "internalType": "struct DecentralizedBodaDispatch.Rider",
          "name": "",
          "type": "tuple"
        }
      ],
      "stateMutability": "view",
      "type": "function"
    },
    {
      "inputs": [
        {
          "internalType": "uint256",
          "name": "_tripId",
          "type": "uint256"
        }
      ],
      "name": "getTripDetails",
      "outputs": [
        {
          "components": [
            {
              "internalType": "uint256",
              "name": "tripId",
              "type": "uint256"
            },
            {
              "internalType": "address",
              "name": "rider",
              "type": "address"
            },
            {
              "internalType": "address",
              "name": "client",
              "type": "address"
            },
            {
              "internalType": "uint256",
              "name": "fare",
              "type": "uint256"
            },
            {
              "internalType": "bool",
              "name": "isCompleted",
              "type": "bool"
            },
            {
              "internalType": "bool",
              "name": "isPaidOut",
              "type": "bool"
            }
          ],
          "internalType": "struct DecentralizedBodaDispatch.Trip",
          "name": "",
          "type": "tuple"
        }
      ],
      "stateMutability": "view",
      "type": "function"
    },
    {
      "inputs": [],
      "name": "nextClientId",
      "outputs": [
        {
          "internalType": "uint256",
          "name": "",
          "type": "uint256"
        }
      ],
      "stateMutability": "view",
      "type": "function"
    },
    {
      "inputs": [],
      "name": "nextRiderId",
      "outputs": [
        {
          "internalType": "uint256",
          "name": "",
          "type": "uint256"
        }
      ],
      "stateMutability": "view",
      "type": "function"
    },
    {
      "inputs": [],
      "name": "nextTripId",
      "outputs": [
        {
          "internalType": "uint256",
          "name": "",
          "type": "uint256"
        }
      ],
      "stateMutability": "view",
      "type": "function"
    },
    {
      "inputs": [],
      "name": "registerClient",
      "outputs": [],
      "stateMutability": "nonpayable",
      "type": "function"
    },
    {
      "inputs": [],
      "name": "registerRider",
      "outputs": [],
      "stateMutability": "nonpayable",
      "type": "function"
    },
    {
      "inputs": [
        {
          "internalType": "address",
          "name": "",
          "type": "address"
        }
      ],
      "name": "riderProfiles",
      "outputs": [
        {
          "internalType": "uint256",
          "name": "riderId",
          "type": "uint256"
        },
        {
          "internalType": "address",
          "name": "user",
          "type": "address"
        },
        {
          "internalType": "uint256",
          "name": "earnings",
          "type": "uint256"
        },
        {
          "internalType": "uint256",
          "name": "stars",
          "type": "uint256"
        },
        {
          "internalType": "uint256",
          "name": "totalTrips",
          "type": "uint256"
        },
        {
          "internalType": "bool",
          "name": "isRegistered",
          "type": "bool"
        }
      ],
      "stateMutability": "view",
      "type": "function"
    },
    {
      "inputs": [
        {
          "internalType": "uint256",
          "name": "_amount",
          "type": "uint256"
        }
      ],
      "name": "riderWithdrawEarnings",
      "outputs": [],
      "stateMutability": "nonpayable",
      "type": "function"
    },
    {
      "inputs": [
        {
          "internalType": "address",
          "name": "_rider",
          "type": "address"
        }
      ],
      "name": "startTrip",
      "outputs": [],
      "stateMutability": "payable",
      "type": "function"
    },
    {
      "inputs": [
        {
          "internalType": "uint256",
          "name": "",
          "type": "uint256"
        }
      ],
      "name": "trips",
      "outputs": [
        {
          "internalType": "uint256",
          "name": "tripId",
          "type": "uint256"
        },
        {
          "internalType": "address",
          "name": "rider",
          "type": "address"
        },
        {
          "internalType": "address",
          "name": "client",
          "type": "address"
        },
        {
          "internalType": "uint256",
          "name": "fare",
          "type": "uint256"
        },
        {
          "internalType": "bool",
          "name": "isCompleted",
          "type": "bool"
        },
        {
          "internalType": "bool",
          "name": "isPaidOut",
          "type": "bool"
        }
      ],
      "stateMutability": "view",
      "type": "function"
    },
    {
      "stateMutability": "payable",
      "type": "receive"
    }
  ],
  "bytecode": "0x6080604052348015600f57600080fd5b506124fc8061001f6000396000f3fe6080604052600436106100f75760003560e01c8063b2d2b68a1161008a578063ea1d922511610059578063ea1d92251461031c578063ecb9614014610359578063f07ff64114610384578063f6824a7c1461038e576100fe565b8063b2d2b68a14610246578063c1917e791461026f578063c7c340d514610298578063d3906920146102da576100fe565b80636d9fb287116100c65780636d9fb287146101c25780637816e2ed146101d95780638921a34614610204578063adab82641461022f576100fe565b8063124c128e146101035780633a3cd0621461014057806343129a1d146101695780634e20be16146101a6576100fe565b366100fe57005b600080fd5b34801561010f57600080fd5b5061012a6004803603810190610125919061192b565b6103d0565b6040516101379190611a3e565b60405180910390f35b34801561014c57600080fd5b506101676004803603810190610162919061192b565b6104f2565b005b34801561017557600080fd5b50610190600480360381019061018b9190611a85565b6106ed565b60405161019d9190611b2d565b60405180910390f35b6101c060048036038101906101bb9190611a85565b6107f0565b005b3480156101ce57600080fd5b506101d7610bef565b005b3480156101e557600080fd5b506101ee610e08565b6040516101fb9190611b57565b60405180910390f35b34801561021057600080fd5b50610219610e0e565b6040516102269190611b57565b60405180910390f35b34801561023b57600080fd5b50610244610e14565b005b34801561025257600080fd5b5061026d6004803603810190610268919061192b565b611015565b005b34801561027b57600080fd5b506102966004803603810190610291919061192b565b611181565b005b3480156102a457600080fd5b506102bf60048036038101906102ba9190611a85565b6113be565b6040516102d196959493929190611b90565b60405180910390f35b3480156102e657600080fd5b5061030160048036038101906102fc9190611a85565b611427565b60405161031396959493929190611bf1565b60405180910390f35b34801561032857600080fd5b50610343600480360381019061033e9190611a85565b61149d565b6040516103509190611ccd565b60405180910390f35b34801561036557600080fd5b5061036e61158f565b60405161037b9190611b57565b60405180910390f35b61038c611595565b005b34801561039a57600080fd5b506103b560048036038101906103b0919061192b565b611756565b6040516103c796959493929190611ce8565b60405180910390f35b6103d86117ec565b6000808381526020019081526020016000206040518060c0016040529081600082015481526020016001820160009054906101000a900473ffffffffffffffffffffffffffffffffffffffff1673ffffffffffffffffffffffffffffffffffffffff1673ffffffffffffffffffffffffffffffffffffffff1681526020016002820160009054906101000a900473ffffffffffffffffffffffffffffffffffffffff1673ffffffffffffffffffffffffffffffffffffffff1673ffffffffffffffffffffffffffffffffffffffff168152602001600382015481526020016004820160009054906101000a900460ff161515151581526020016004820160019054906101000a900460ff1615151515815250509050919050565b600460003373ffffffffffffffffffffffffffffffffffffffff1673ffffffffffffffffffffffffffffffffffffffff16815260200190815260200160002060040160009054906101000a900460ff16610581576040517f08c379a000000000000000000000000000000000000000000000000000000000815260040161057890611da6565b60405180910390fd5b6000600460003373ffffffffffffffffffffffffffffffffffffffff1673ffffffffffffffffffffffffffffffffffffffff168152602001908152602001600020905060008211610607576040517f08c379a00000000000000000000000000000000000000000000000000000000081526004016105fe90611e12565b60405180910390fd5b818160030154101561064e576040517f08c379a000000000000000000000000000000000000000000000000000000000815260040161064590611e7e565b60405180910390fd5b3373ffffffffffffffffffffffffffffffffffffffff166108fc839081150290604051600060405180830381858888f19350505050158015610694573d6000803e3d6000fd5b50818160030160008282546106a99190611ecd565b925050819055507f640b104539d8d667d0fc38e47a122d99e56c86d9340e622664a89b5b5f92a20f33836040516106e1929190611f01565b60405180910390a15050565b6106f5611852565b600460008373ffffffffffffffffffffffffffffffffffffffff1673ffffffffffffffffffffffffffffffffffffffff1681526020019081526020016000206040518060c0016040529081600082015481526020016001820160009054906101000a900473ffffffffffffffffffffffffffffffffffffffff1673ffffffffffffffffffffffffffffffffffffffff1673ffffffffffffffffffffffffffffffffffffffff16815260200160028201548152602001600382015481526020016004820160009054906101000a900460ff161515151581526020016004820160019054906101000a900460ff1615151515815250509050919050565b600460003373ffffffffffffffffffffffffffffffffffffffff1673ffffffffffffffffffffffffffffffffffffffff16815260200190815260200160002060040160009054906101000a900460ff1661087f576040517f08c379a000000000000000000000000000000000000000000000000000000000815260040161087690611f76565b60405180910390fd5b600260008273ffffffffffffffffffffffffffffffffffffffff1673ffffffffffffffffffffffffffffffffffffffff16815260200190815260200160002060050160009054906101000a900460ff1661090e576040517f08c379a000000000000000000000000000000000000000000000000000000000815260040161090590611fe2565b60405180910390fd5b600460003373ffffffffffffffffffffffffffffffffffffffff1673ffffffffffffffffffffffffffffffffffffffff16815260200190815260200160002060040160019054906101000a900460ff1661099d576040517f08c379a00000000000000000000000000000000000000000000000000000000081526004016109949061204e565b60405180910390fd5b600034116109e0576040517f08c379a00000000000000000000000000000000000000000000000000000000081526004016109d7906120ba565b60405180910390fd5b600060015490506040518060c001604052808281526020018373ffffffffffffffffffffffffffffffffffffffff1681526020013373ffffffffffffffffffffffffffffffffffffffff168152602001348152602001600015158152602001600015158152506000808381526020019081526020016000206000820151816000015560208201518160010160006101000a81548173ffffffffffffffffffffffffffffffffffffffff021916908373ffffffffffffffffffffffffffffffffffffffff16021790555060408201518160020160006101000a81548173ffffffffffffffffffffffffffffffffffffffff021916908373ffffffffffffffffffffffffffffffffffffffff1602179055506060820151816003015560808201518160040160006101000a81548160ff02191690831515021790555060a08201518160040160016101000a81548160ff02191690831515021790555090505034600460003373ffffffffffffffffffffffffffffffffffffffff1673ffffffffffffffffffffffffffffffffffffffff1681526020019081526020016000206002016000828254610b8f91906120da565b925050819055507f955e31c9476371c1919457ec13707a9298d5deab3c40f7931b694d1fd8888d9881338434604051610bcb949392919061210e565b60405180910390a160016000815480929190610be690612153565b91905055505050565b600460003373ffffffffffffffffffffffffffffffffffffffff1673ffffffffffffffffffffffffffffffffffffffff16815260200190815260200160002060040160009054906101000a900460ff1615610c7f576040517f08c379a0000000000000000000000000000000000000000000000000000000008152600401610c76906121e7565b60405180910390fd5b6040518060c0016040528060055481526020013373ffffffffffffffffffffffffffffffffffffffff168152602001600081526020016000815260200160011515815260200160001515815250600460003373ffffffffffffffffffffffffffffffffffffffff1673ffffffffffffffffffffffffffffffffffffffff1681526020019081526020016000206000820151816000015560208201518160010160006101000a81548173ffffffffffffffffffffffffffffffffffffffff021916908373ffffffffffffffffffffffffffffffffffffffff160217905550604082015181600201556060820151816003015560808201518160040160006101000a81548160ff02191690831515021790555060a08201518160040160016101000a81548160ff0219169083151502179055509050507f3c955a3187c7e83dcbb8616841ccd3d715ab7a5e6928b8195535cced27e6f0b433600554604051610de6929190611f01565b60405180910390a160056000815480929190610e0190612153565b9190505550565b60055481565b60015481565b600260003373ffffffffffffffffffffffffffffffffffffffff1673ffffffffffffffffffffffffffffffffffffffff16815260200190815260200160002060050160009054906101000a900460ff1615610ea4576040517f08c379a0000000000000000000000000000000000000000000000000000000008152600401610e9b90612253565b60405180910390fd5b6040518060c0016040528060035481526020013373ffffffffffffffffffffffffffffffffffffffff16815260200160008152602001600081526020016000815260200160011515815250600260003373ffffffffffffffffffffffffffffffffffffffff1673ffffffffffffffffffffffffffffffffffffffff1681526020019081526020016000206000820151816000015560208201518160010160006101000a81548173ffffffffffffffffffffffffffffffffffffffff021916908373ffffffffffffffffffffffffffffffffffffffff16021790555060408201518160020155606082015181600301556080820151816004015560a08201518160050160006101000a81548160ff0219169083151502179055509050507fc417e69cc85f56ac8495757dceb63eb538181d06b65962fa7a523608f0490ac433600354604051610ff3929190611f01565b60405180910390a16003600081548092919061100e90612153565b9190505550565b6000600260003373ffffffffffffffffffffffffffffffffffffffff1673ffffffffffffffffffffffffffffffffffffffff16815260200190815260200160002090506000821161109b576040517f08c379a0000000000000000000000000000000000000000000000000000000008152600401611092906122bf565b60405180910390fd5b81816002015410156110e2576040517f08c379a00000000000000000000000000000000000000000000000000000000081526004016110d99061232b565b60405180910390fd5b3373ffffffffffffffffffffffffffffffffffffffff166108fc839081150290604051600060405180830381858888f19350505050158015611128573d6000803e3d6000fd5b508181600201600082825461113d9190611ecd565b925050819055507fd99c55dd38c6e06bcc3bd5dda0cb5e07e70dd24eee1bdcb0d940a2bc81b133dd3383604051611175929190611f01565b60405180910390a15050565b600080600083815260200190815260200160002090508060020160009054906101000a900473ffffffffffffffffffffffffffffffffffffffff1673ffffffffffffffffffffffffffffffffffffffff163373ffffffffffffffffffffffffffffffffffffffff1614611229576040517f08c379a000000000000000000000000000000000000000000000000000000000815260040161122090612397565b60405180910390fd5b8060040160009054906101000a900460ff161561127b576040517f08c379a000000000000000000000000000000000000000000000000000000000815260040161127290612403565b60405180910390fd5b60018160040160006101000a81548160ff0219169083151502179055506000600260008360010160009054906101000a900473ffffffffffffffffffffffffffffffffffffffff1673ffffffffffffffffffffffffffffffffffffffff1673ffffffffffffffffffffffffffffffffffffffff1681526020019081526020016000209050816003015481600201600082825461131791906120da565b92505081905550600181600301600082825461133391906120da565b92505081905550600181600401600082825461134f91906120da565b925050819055507f4c3ab42fece79b0f300ffbd9f5816668d48bd567031eb873e4d97dada6abd352838360010160009054906101000a900473ffffffffffffffffffffffffffffffffffffffff1683600301546040516113b193929190612423565b60405180910390a1505050565b60026020528060005260406000206000915090508060000154908060010160009054906101000a900473ffffffffffffffffffffffffffffffffffffffff16908060020154908060030154908060040154908060050160009054906101000a900460ff16905086565b60046020528060005260406000206000915090508060000154908060010160009054906101000a900473ffffffffffffffffffffffffffffffffffffffff16908060020154908060030154908060040160009054906101000a900460ff16908060040160019054906101000a900460ff16905086565b6114a56118a2565b600260008373ffffffffffffffffffffffffffffffffffffffff1673ffffffffffffffffffffffffffffffffffffffff1681526020019081526020016000206040518060c0016040529081600082015481526020016001820160009054906101000a900473ffffffffffffffffffffffffffffffffffffffff1673ffffffffffffffffffffffffffffffffffffffff1673ffffffffffffffffffffffffffffffffffffffff1681526020016002820154815260200160038201548152602001600482015481526020016005820160009054906101000a900460ff1615151515815250509050919050565b60035481565b600460003373ffffffffffffffffffffffffffffffffffffffff1673ffffffffffffffffffffffffffffffffffffffff16815260200190815260200160002060040160009054906101000a900460ff16611624576040517f08c379a000000000000000000000000000000000000000000000000000000000815260040161161b90611da6565b60405180910390fd5b60003411611667576040517f08c379a000000000000000000000000000000000000000000000000000000000815260040161165e906124a6565b60405180910390fd5b34600460003373ffffffffffffffffffffffffffffffffffffffff1673ffffffffffffffffffffffffffffffffffffffff16815260200190815260200160002060030160008282546116b991906120da565b925050819055506001600460003373ffffffffffffffffffffffffffffffffffffffff1673ffffffffffffffffffffffffffffffffffffffff16815260200190815260200160002060040160016101000a81548160ff0219169083151502179055507f1a1293d7af3357cec67893722572b0342502edfe63a5fd97b5d68cb68321d9b1333460405161174c929190611f01565b60405180910390a1565b60006020528060005260406000206000915090508060000154908060010160009054906101000a900473ffffffffffffffffffffffffffffffffffffffff16908060020160009054906101000a900473ffffffffffffffffffffffffffffffffffffffff16908060030154908060040160009054906101000a900460ff16908060040160019054906101000a900460ff16905086565b6040518060c0016040528060008152602001600073ffffffffffffffffffffffffffffffffffffffff168152602001600073ffffffffffffffffffffffffffffffffffffffff168152602001600081526020016000151581526020016000151581525090565b6040518060c0016040528060008152602001600073ffffffffffffffffffffffffffffffffffffffff16815260200160008152602001600081526020016000151581526020016000151581525090565b6040518060c0016040528060008152602001600073ffffffffffffffffffffffffffffffffffffffff1681526020016000815260200160008152602001600081526020016000151581525090565b600080fd5b6000819050919050565b611908816118f5565b811461191357600080fd5b50565b600081359050611925816118ff565b92915050565b600060208284031215611941576119406118f0565b5b600061194f84828501611916565b91505092915050565b611961816118f5565b82525050565b600073ffffffffffffffffffffffffffffffffffffffff82169050919050565b600061199282611967565b9050919050565b6119a281611987565b82525050565b60008115159050919050565b6119bd816119a8565b82525050565b60c0820160008201516119d96000850182611958565b5060208201516119ec6020850182611999565b5060408201516119ff6040850182611999565b506060820151611a126060850182611958565b506080820151611a2560808501826119b4565b5060a0820151611a3860a08501826119b4565b50505050565b600060c082019050611a5360008301846119c3565b92915050565b611a6281611987565b8114611a6d57600080fd5b50565b600081359050611a7f81611a59565b92915050565b600060208284031215611a9b57611a9a6118f0565b5b6000611aa984828501611a70565b91505092915050565b60c082016000820151611ac86000850182611958565b506020820151611adb6020850182611999565b506040820151611aee6040850182611958565b506060820151611b016060850182611958565b506080820151611b1460808501826119b4565b5060a0820151611b2760a08501826119b4565b50505050565b600060c082019050611b426000830184611ab2565b92915050565b611b51816118f5565b82525050565b6000602082019050611b6c6000830184611b48565b92915050565b611b7b81611987565b82525050565b611b8a816119a8565b82525050565b600060c082019050611ba56000830189611b48565b611bb26020830188611b72565b611bbf6040830187611b48565b611bcc6060830186611b48565b611bd96080830185611b48565b611be660a0830184611b81565b979650505050505050565b600060c082019050611c066000830189611b48565b611c136020830188611b72565b611c206040830187611b48565b611c2d6060830186611b48565b611c3a6080830185611b81565b611c4760a0830184611b81565b979650505050505050565b60c082016000820151611c686000850182611958565b506020820151611c7b6020850182611999565b506040820151611c8e6040850182611958565b506060820151611ca16060850182611958565b506080820151611cb46080850182611958565b5060a0820151611cc760a08501826119b4565b50505050565b600060c082019050611ce26000830184611c52565b92915050565b600060c082019050611cfd6000830189611b48565b611d0a6020830188611b72565b611d176040830187611b72565b611d246060830186611b48565b611d316080830185611b81565b611d3e60a0830184611b81565b979650505050505050565b600082825260208201905092915050565b7f4e6f74206120636c69656e740000000000000000000000000000000000000000600082015250565b6000611d90600c83611d49565b9150611d9b82611d5a565b602082019050919050565b60006020820190508181036000830152611dbf81611d83565b9050919050565b7f496e76616c696420416d6f756e74000000000000000000000000000000000000600082015250565b6000611dfc600e83611d49565b9150611e0782611dc6565b602082019050919050565b60006020820190508181036000830152611e2b81611def565b9050919050565b7f4e6f7420656e6f7567682062616c616e63650000000000000000000000000000600082015250565b6000611e68601283611d49565b9150611e7382611e32565b602082019050919050565b60006020820190508181036000830152611e9781611e5b565b9050919050565b7f4e487b7100000000000000000000000000000000000000000000000000000000600052601160045260246000fd5b6000611ed8826118f5565b9150611ee3836118f5565b9250828203905081811115611efb57611efa611e9e565b5b92915050565b6000604082019050611f166000830185611b72565b611f236020830184611b48565b9392505050565b7f596f75206d75737420726567697374657220617320636c69656e740000000000600082015250565b6000611f60601b83611d49565b9150611f6b82611f2a565b602082019050919050565b60006020820190508181036000830152611f8f81611f53565b9050919050565b7f496e76616c696420726964657200000000000000000000000000000000000000600082015250565b6000611fcc600d83611d49565b9150611fd782611f96565b602082019050919050565b60006020820190508181036000830152611ffb81611fbf565b9050919050565b7f596f752068617665206e6f2062616c616e636500000000000000000000000000600082015250565b6000612038601383611d49565b915061204382612002565b602082019050919050565b600060208201905081810360008301526120678161202b565b9050919050565b7f5472697020666172652072657175697265640000000000000000000000000000600082015250565b60006120a4601283611d49565b91506120af8261206e565b602082019050919050565b600060208201905081810360008301526120d381612097565b9050919050565b60006120e5826118f5565b91506120f0836118f5565b925082820190508082111561210857612107611e9e565b5b92915050565b60006080820190506121236000830187611b48565b6121306020830186611b72565b61213d6040830185611b72565b61214a6060830184611b48565b95945050505050565b600061215e826118f5565b91507fffffffffffffffffffffffffffffffffffffffffffffffffffffffffffffffff82036121905761218f611e9e565b5b600182019050919050565b7f416c7265616479207265676973746572656420617320636c69656e7400000000600082015250565b60006121d1601c83611d49565b91506121dc8261219b565b602082019050919050565b60006020820190508181036000830152612200816121c4565b9050919050565b7f416c726561647920726567697374657265642061732072696465720000000000600082015250565b600061223d601b83611d49565b915061224882612207565b602082019050919050565b6000602082019050818103600083015261226c81612230565b9050919050565b7f496e76616c696420616d6f756e74000000000000000000000000000000000000600082015250565b60006122a9600e83611d49565b91506122b482612273565b602082019050919050565b600060208201905081810360008301526122d88161229c565b9050919050565b7f496e73756666696369656e74206561726e696e67730000000000000000000000600082015250565b6000612315601583611d49565b9150612320826122df565b602082019050919050565b6000602082019050818103600083015261234481612308565b9050919050565b7f4f6e6c7920636c69656e742063616e20636f6d706c6574652074726970000000600082015250565b6000612381601d83611d49565b915061238c8261234b565b602082019050919050565b600060208201905081810360008301526123b081612374565b9050919050565b7f5472697020616c726561647920636f6d706c6574656400000000000000000000600082015250565b60006123ed601683611d49565b91506123f8826123b7565b602082019050919050565b6000602082019050818103600083015261241c816123e0565b9050919050565b60006060820190506124386000830186611b48565b6124456020830185611b72565b6124526040830184611b48565b949350505050565b7f4d7573742073656e6420736f6d65204554480000000000000000000000000000600082015250565b6000612490601283611d49565b915061249b8261245a565b602082019050919050565b600060208201905081810360008301526124bf81612483565b905091905056fea2646970667358221220ece7e928e1305161080dacd706c97974216eebc645da6a936da23616d58d8d5064736f6c634300081c0033",
  "linkReferences": {},
  "deployedLinkReferences": {}
}