{
  "_format": "hh-sol-artifact-1",
  "contractName": "DecentralizedBodaDispatch",
  "sourceName": "contracts/BodaDispatch.sol",
  "abi": [
    {
      "anonymous": false,
      "inputs": [
        {
          "indexed": false,
          "internalType": "address",
          "name": "client",
          "type": "address"
        },
        {
          "indexed": false,
          "internalType": "uint256",
          "name": "amount",
          "type": "uint256"
        }
      ],
      "name": "ClientDeposited",
      "type": "event"
    },
    {
      "anonymous": false,
      "inputs": [
        {
          "indexed": false,
          "internalType": "address",
          "name": "client",
          "type": "address"
        },
        {
          "indexed": false,
          "internalType": "uint256",
          "name": "clientId",
          "type": "uint256"
        }
      ],
      "name": "ClientRegistered",
      "type": "event"
    },
    {
      "anonymous": false,
      "inputs": [
        {
          "indexed": false,
          "internalType": "address",
          "name": "client",
          "type": "address"
        },
        {
          "indexed": false,
          "internalType": "uint256",
          "name": "amount",
          "type": "uint256"
        }
      ],
      "name": "ClientWithdraw",
      "type": "event"
    },
    {
      "anonymous": false,
      "inputs": [
        {
          "indexed": false,
          "internalType": "address",
          "name": "rider",
          "type": "address"
        },
        {
          "indexed": false,
          "internalType": "uint256",
          "name": "riderId",
          "type": "uint256"
        }
      ],
      "name": "RiderRegistered",
      "type": "event"
    },
    {
      "anonymous": false,
      "inputs": [
        {
          "indexed": false,
          "internalType": "address",
          "name": "rider",
          "type": "address"
        },
        {
          "indexed": false,
          "internalType": "uint256",
          "name": "amount",
          "type": "uint256"
        }
      ],
      "name": "RiderWithdraw",
      "type": "event"
    },
    {
      "anonymous": false,
      "inputs": [
        {
          "indexed": false,
          "internalType": "uint256",
          "name": "tripId",
          "type": "uint256"
        },
        {
          "indexed": false,
          "internalType": "address",
          "name": "rider",
          "type": "address"
        },
        {
          "indexed": false,
          "internalType": "uint256",
          "name": "updatedStars",
          "type": "uint256"
        }
      ],
      "name": "TripCompleted",
      "type": "event"
    },
    {
      "anonymous": false,
      "inputs": [
        {
          "indexed": false,
          "internalType": "uint256",
          "name": "tripId",
          "type": "uint256"
        },
        {
          "indexed": false,
          "internalType": "address",
          "name": "client",
          "type": "address"
        },
        {
          "indexed": false,
          "internalType": "address",
          "name": "rider",
          "type": "address"
        },
        {
          "indexed": false,
          "internalType": "uint256",
          "name": "fare",
          "type": "uint256"
        }
      ],
      "name": "TripStarted",
      "type": "event"
    },
    {
      "inputs": [
        {
          "internalType": "bytes",
          "name": "",
          "type": "bytes"
        }
      ],
      "name": "checkUpkeep",
      "outputs": [
        {
          "internalType": "bool",
          "name": "upkeepNeeded",
          "type": "bool"
        },
        {
          "internalType": "bytes",
          "name": "performData",
          "type": "bytes"
        }
      ],
      "stateMutability": "view",
      "type": "function"
    },
    {
      "inputs": [],
      "name": "clientDeposit",
      "outputs": [],
      "stateMutability": "payable",
      "type": "function"
    },
    {
      "inputs": [
        {
          "internalType": "address",
          "name": "",
          "type": "address"
        }
      ],
      "name": "clientProfiles",
      "outputs": [
        {
          "internalType": "uint256",
          "name": "clientId",
          "type": "uint256"
        },
        {
          "internalType": "address",
          "name": "user",
          "type": "address"
        },
        {
          "internalType": "uint256",
          "name": "balance",
          "type": "uint256"
        },
        {
          "internalType": "bool",
          "name": "isRegistered",
          "type": "bool"
        },
        {
          "internalType": "bool",
          "name": "hasSomeBalance",
          "type": "bool"
        }
      ],
      "stateMutability": "view",
      "type": "function"
    },
    {
      "inputs": [
        {
          "internalType": "uint256",
          "name": "_amount",
          "type": "uint256"
        }
      ],
      "name": "clientWithdraw",
      "outputs": [],
      "stateMutability": "nonpayable",
      "type": "function"
    },
    {
      "inputs": [
        {
          "internalType": "uint256",
          "name": "_tripId",
          "type": "uint256"
        }
      ],
      "name": "completeTrip",
      "outputs": [],
      "stateMutability": "nonpayable",
      "type": "function"
    },
    {
      "inputs": [
        {
          "internalType": "address",
          "name": "_client",
          "type": "address"
        }
      ],
      "name": "getClientInfo",
      "outputs": [
        {
          "components": [
            {
              "internalType": "uint256",
              "name": "clientId",
              "type": "uint256"
            },
            {
              "internalType": "address",
              "name": "user",
              "type": "address"
            },
            {
              "internalType": "uint256",
              "name": "balance",
              "type": "uint256"
            },
            {
              "internalType": "bool",
              "name": "isRegistered",
              "type": "bool"
            },
            {
              "internalType": "bool",
              "name": "hasSomeBalance",
              "type": "bool"
            }
          ],
          "internalType": "struct DecentralizedBodaDispatch.Client",
          "name": "",
          "type": "tuple"
        }
      ],
      "stateMutability": "view",
      "type": "function"
    },
    {
      "inputs": [
        {
          "internalType": "address",
          "name": "_rider",
          "type": "address"
        }
      ],
      "name": "getRiderInfo",
      "outputs": [
        {
          "components": [
            {
              "internalType": "uint256",
              "name": "riderId",
              "type": "uint256"
            },
            {
              "internalType": "address",
              "name": "user",
              "type": "address"
            },
            {
              "internalType": "uint256",
              "name": "earnings",
              "type": "uint256"
            },
            {
              "internalType": "uint256",
              "name": "stars",
              "type": "uint256"
            },
            {
              "internalType": "uint256",
              "name": "totalTrips",
              "type": "uint256"
            },
            {
              "internalType": "bool",
              "name": "isRegistered",
              "type": "bool"
            }
          ],
          "internalType": "struct DecentralizedBodaDispatch.Rider",
          "name": "",
          "type": "tuple"
        }
      ],
      "stateMutability": "view",
      "type": "function"
    },
    {
      "inputs": [
        {
          "internalType": "uint256",
          "name": "_tripId",
          "type": "uint256"
        }
      ],
      "name": "getTripDetails",
      "outputs": [
        {
          "components": [
            {
              "internalType": "uint256",
              "name": "tripId",
              "type": "uint256"
            },
            {
              "internalType": "address",
              "name": "rider",
              "type": "address"
            },
            {
              "internalType": "address",
              "name": "client",
              "type": "address"
            },
            {
              "internalType": "uint256",
              "name": "fare",
              "type": "uint256"
            },
            {
              "internalType": "bool",
              "name": "isCompleted",
              "type": "bool"
            },
            {
              "internalType": "bool",
              "name": "isPaidOut",
              "type": "bool"
            }
          ],
          "internalType": "struct DecentralizedBodaDispatch.Trip",
          "name": "",
          "type": "tuple"
        }
      ],
      "stateMutability": "view",
      "type": "function"
    },
    {
      "inputs": [],
      "name": "nextClientId",
      "outputs": [
        {
          "internalType": "uint256",
          "name": "",
          "type": "uint256"
        }
      ],
      "stateMutability": "view",
      "type": "function"
    },
    {
      "inputs": [],
      "name": "nextRiderId",
      "outputs": [
        {
          "internalType": "uint256",
          "name": "",
          "type": "uint256"
        }
      ],
      "stateMutability": "view",
      "type": "function"
    },
    {
      "inputs": [],
      "name": "nextTripId",
      "outputs": [
        {
          "internalType": "uint256",
          "name": "",
          "type": "uint256"
        }
      ],
      "stateMutability": "view",
      "type": "function"
    },
    {
      "inputs": [
        {
          "internalType": "bytes",
          "name": "performData",
          "type": "bytes"
        }
      ],
      "name": "performUpkeep",
      "outputs": [],
      "stateMutability": "nonpayable",
      "type": "function"
    },
    {
      "inputs": [],
      "name": "registerClient",
      "outputs": [],
      "stateMutability": "nonpayable",
      "type": "function"
    },
    {
      "inputs": [],
      "name": "registerRider",
      "outputs": [],
      "stateMutability": "nonpayable",
      "type": "function"
    },
    {
      "inputs": [
        {
          "internalType": "uint256",
          "name": "_tripId",
          "type": "uint256"
        }
      ],
      "name": "rewardTripRiderByFare",
      "outputs": [],
      "stateMutability": "nonpayable",
      "type": "function"
    },
    {
      "inputs": [
        {
          "internalType": "address",
          "name": "",
          "type": "address"
        }
      ],
      "name": "riderProfiles",
      "outputs": [
        {
          "internalType": "uint256",
          "name": "riderId",
          "type": "uint256"
        },
        {
          "internalType": "address",
          "name": "user",
          "type": "address"
        },
        {
          "internalType": "uint256",
          "name": "earnings",
          "type": "uint256"
        },
        {
          "internalType": "uint256",
          "name": "stars",
          "type": "uint256"
        },
        {
          "internalType": "uint256",
          "name": "totalTrips",
          "type": "uint256"
        },
        {
          "internalType": "bool",
          "name": "isRegistered",
          "type": "bool"
        }
      ],
      "stateMutability": "view",
      "type": "function"
    },
    {
      "inputs": [
        {
          "internalType": "uint256",
          "name": "_amount",
          "type": "uint256"
        }
      ],
      "name": "riderWithdrawEarnings",
      "outputs": [],
      "stateMutability": "nonpayable",
      "type": "function"
    },
    {
      "inputs": [
        {
          "internalType": "address",
          "name": "_rider",
          "type": "address"
        },
        {
          "internalType": "uint256",
          "name": "_fare",
          "type": "uint256"
        }
      ],
      "name": "startTrip",
      "outputs": [],
      "stateMutability": "nonpayable",
      "type": "function"
    },
    {
      "inputs": [
        {
          "internalType": "uint256",
          "name": "",
          "type": "uint256"
        }
      ],
      "name": "trips",
      "outputs": [
        {
          "internalType": "uint256",
          "name": "tripId",
          "type": "uint256"
        },
        {
          "internalType": "address",
          "name": "rider",
          "type": "address"
        },
        {
          "internalType": "address",
          "name": "client",
          "type": "address"
        },
        {
          "internalType": "uint256",
          "name": "fare",
          "type": "uint256"
        },
        {
          "internalType": "bool",
          "name": "isCompleted",
          "type": "bool"
        },
        {
          "internalType": "bool",
          "name": "isPaidOut",
          "type": "bool"
        }
      ],
      "stateMutability": "view",
      "type": "function"
    },
    {
      "stateMutability": "payable",
      "type": "receive"
    }
  ],
  "bytecode": "0x6080604052348015600f57600080fd5b50612c228061001f6000396000f3fe6080604052600436106101185760003560e01c8063adab8264116100a0578063de24942111610064578063de249421146103b0578063ea1d9225146103d9578063ecb9614014610416578063f07ff64114610441578063f6824a7c1461044b5761011f565b8063adab8264146102c4578063b2d2b68a146102db578063c1917e7914610304578063c7c340d51461032d578063d39069201461036f5761011f565b80636b798218116100e75780636b798218146101f05780636d9fb287146102195780636e04ff0d146102305780637816e2ed1461026e5780638921a346146102995761011f565b8063124c128e146101245780633a3cd0621461016157806343129a1d1461018a5780634585e33b146101c75761011f565b3661011f57005b600080fd5b34801561013057600080fd5b5061014b60048036038101906101469190611de8565b61048d565b6040516101589190611efb565b60405180910390f35b34801561016d57600080fd5b5061018860048036038101906101839190611de8565b6105af565b005b34801561019657600080fd5b506101b160048036038101906101ac9190611f42565b6107aa565b6040516101be9190611fd7565b60405180910390f35b3480156101d357600080fd5b506101ee60048036038101906101e99190612057565b6108a3565b005b3480156101fc57600080fd5b50610217600480360381019061021291906120a4565b6108c4565b005b34801561022557600080fd5b5061022e610c61565b005b34801561023c57600080fd5b5061025760048036038101906102529190612057565b610e69565b604051610265929190612183565b60405180910390f35b34801561027a57600080fd5b50610283611003565b60405161029091906121c2565b60405180910390f35b3480156102a557600080fd5b506102ae611009565b6040516102bb91906121c2565b60405180910390f35b3480156102d057600080fd5b506102d961100f565b005b3480156102e757600080fd5b5061030260048036038101906102fd9190611de8565b611210565b005b34801561031057600080fd5b5061032b60048036038101906103269190611de8565b61140b565b005b34801561033957600080fd5b50610354600480360381019061034f9190611f42565b6115b5565b604051610366969594939291906121ec565b60405180910390f35b34801561037b57600080fd5b5061039660048036038101906103919190611f42565b61161e565b6040516103a795949392919061224d565b60405180910390f35b3480156103bc57600080fd5b506103d760048036038101906103d29190611de8565b61168e565b005b3480156103e557600080fd5b5061040060048036038101906103fb9190611f42565b61195c565b60405161040d919061231b565b60405180910390f35b34801561042257600080fd5b5061042b611a4e565b60405161043891906121c2565b60405180910390f35b610449611a54565b005b34801561045757600080fd5b50610472600480360381019061046d9190611de8565b611c15565b60405161048496959493929190612336565b60405180910390f35b610495611cab565b6000808381526020019081526020016000206040518060c0016040529081600082015481526020016001820160009054906101000a900473ffffffffffffffffffffffffffffffffffffffff1673ffffffffffffffffffffffffffffffffffffffff1673ffffffffffffffffffffffffffffffffffffffff1681526020016002820160009054906101000a900473ffffffffffffffffffffffffffffffffffffffff1673ffffffffffffffffffffffffffffffffffffffff1673ffffffffffffffffffffffffffffffffffffffff168152602001600382015481526020016004820160009054906101000a900460ff161515151581526020016004820160019054906101000a900460ff1615151515815250509050919050565b600460003373ffffffffffffffffffffffffffffffffffffffff1673ffffffffffffffffffffffffffffffffffffffff16815260200190815260200160002060030160009054906101000a900460ff1661063e576040517f08c379a0000000000000000000000000000000000000000000000000000000008152600401610635906123f4565b60405180910390fd5b6000600460003373ffffffffffffffffffffffffffffffffffffffff1673ffffffffffffffffffffffffffffffffffffffff1681526020019081526020016000209050600082116106c4576040517f08c379a00000000000000000000000000000000000000000000000000000000081526004016106bb90612460565b60405180910390fd5b818160020154101561070b576040517f08c379a0000000000000000000000000000000000000000000000000000000008152600401610702906124cc565b60405180910390fd5b8181600201600082825461071f919061251b565b925050819055503373ffffffffffffffffffffffffffffffffffffffff166108fc839081150290604051600060405180830381858888f1935050505015801561076c573d6000803e3d6000fd5b507f640b104539d8d667d0fc38e47a122d99e56c86d9340e622664a89b5b5f92a20f338360405161079e92919061254f565b60405180910390a15050565b6107b2611d11565b600460008373ffffffffffffffffffffffffffffffffffffffff1673ffffffffffffffffffffffffffffffffffffffff1681526020019081526020016000206040518060a0016040529081600082015481526020016001820160009054906101000a900473ffffffffffffffffffffffffffffffffffffffff1673ffffffffffffffffffffffffffffffffffffffff1673ffffffffffffffffffffffffffffffffffffffff168152602001600282015481526020016003820160009054906101000a900460ff161515151581526020016003820160019054906101000a900460ff1615151515815250509050919050565b600082828101906108b49190611de8565b90506108bf8161168e565b505050565b600460003373ffffffffffffffffffffffffffffffffffffffff1673ffffffffffffffffffffffffffffffffffffffff16815260200190815260200160002060030160009054906101000a900460ff16610953576040517f08c379a000000000000000000000000000000000000000000000000000000000815260040161094a906123f4565b60405180910390fd5b600260008373ffffffffffffffffffffffffffffffffffffffff1673ffffffffffffffffffffffffffffffffffffffff16815260200190815260200160002060050160009054906101000a900460ff166109e2576040517f08c379a00000000000000000000000000000000000000000000000000000000081526004016109d9906125c4565b60405180910390fd5b80600460003373ffffffffffffffffffffffffffffffffffffffff1673ffffffffffffffffffffffffffffffffffffffff168152602001908152602001600020600201541015610a67576040517f08c379a0000000000000000000000000000000000000000000000000000000008152600401610a5e90612630565b60405180910390fd5b60008111610aaa576040517f08c379a0000000000000000000000000000000000000000000000000000000008152600401610aa19061269c565b60405180910390fd5b600060015490506040518060c001604052808281526020018473ffffffffffffffffffffffffffffffffffffffff1681526020013373ffffffffffffffffffffffffffffffffffffffff168152602001838152602001600015158152602001600015158152506000808381526020019081526020016000206000820151816000015560208201518160010160006101000a81548173ffffffffffffffffffffffffffffffffffffffff021916908373ffffffffffffffffffffffffffffffffffffffff16021790555060408201518160020160006101000a81548173ffffffffffffffffffffffffffffffffffffffff021916908373ffffffffffffffffffffffffffffffffffffffff1602179055506060820151816003015560808201518160040160006101000a81548160ff02191690831515021790555060a08201518160040160016101000a81548160ff0219169083151502179055509050507f955e31c9476371c1919457ec13707a9298d5deab3c40f7931b694d1fd8888d9881338585604051610c3c94939291906126bc565b60405180910390a160016000815480929190610c5790612701565b9190505550505050565b600460003373ffffffffffffffffffffffffffffffffffffffff1673ffffffffffffffffffffffffffffffffffffffff16815260200190815260200160002060030160009054906101000a900460ff1615610cf1576040517f08c379a0000000000000000000000000000000000000000000000000000000008152600401610ce890612795565b60405180910390fd5b6040518060a0016040528060055481526020013373ffffffffffffffffffffffffffffffffffffffff1681526020016000815260200160011515815260200160001515815250600460003373ffffffffffffffffffffffffffffffffffffffff1673ffffffffffffffffffffffffffffffffffffffff1681526020019081526020016000206000820151816000015560208201518160010160006101000a81548173ffffffffffffffffffffffffffffffffffffffff021916908373ffffffffffffffffffffffffffffffffffffffff1602179055506040820151816002015560608201518160030160006101000a81548160ff02191690831515021790555060808201518160030160016101000a81548160ff0219169083151502179055509050507f3c955a3187c7e83dcbb8616841ccd3d715ab7a5e6928b8195535cced27e6f0b433600554604051610e4792919061254f565b60405180910390a160056000815480929190610e6290612701565b9190505550565b6000606060005b600154811015610fe45760008060008381526020019081526020016000206040518060c0016040529081600082015481526020016001820160009054906101000a900473ffffffffffffffffffffffffffffffffffffffff1673ffffffffffffffffffffffffffffffffffffffff1673ffffffffffffffffffffffffffffffffffffffff1681526020016002820160009054906101000a900473ffffffffffffffffffffffffffffffffffffffff1673ffffffffffffffffffffffffffffffffffffffff1673ffffffffffffffffffffffffffffffffffffffff168152602001600382015481526020016004820160009054906101000a900460ff161515151581526020016004820160019054906101000a900460ff161515151581525050905080608001518015610fa457508060a00151155b15610fd657600182604051602001610fbc91906121c2565b604051602081830303815290604052935093505050610ffc565b508080600101915050610e70565b50600060405180602001604052806000815250915091505b9250929050565b60055481565b60015481565b600260003373ffffffffffffffffffffffffffffffffffffffff1673ffffffffffffffffffffffffffffffffffffffff16815260200190815260200160002060050160009054906101000a900460ff161561109f576040517f08c379a000000000000000000000000000000000000000000000000000000000815260040161109690612801565b60405180910390fd5b6040518060c0016040528060035481526020013373ffffffffffffffffffffffffffffffffffffffff16815260200160008152602001600081526020016000815260200160011515815250600260003373ffffffffffffffffffffffffffffffffffffffff1673ffffffffffffffffffffffffffffffffffffffff1681526020019081526020016000206000820151816000015560208201518160010160006101000a81548173ffffffffffffffffffffffffffffffffffffffff021916908373ffffffffffffffffffffffffffffffffffffffff16021790555060408201518160020155606082015181600301556080820151816004015560a08201518160050160006101000a81548160ff0219169083151502179055509050507fc417e69cc85f56ac8495757dceb63eb538181d06b65962fa7a523608f0490ac4336003546040516111ee92919061254f565b60405180910390a16003600081548092919061120990612701565b9190505550565b600260003373ffffffffffffffffffffffffffffffffffffffff1673ffffffffffffffffffffffffffffffffffffffff16815260200190815260200160002060050160009054906101000a900460ff1661129f576040517f08c379a00000000000000000000000000000000000000000000000000000000081526004016112969061286d565b60405180910390fd5b6000600260003373ffffffffffffffffffffffffffffffffffffffff1673ffffffffffffffffffffffffffffffffffffffff168152602001908152602001600020905060008211611325576040517f08c379a000000000000000000000000000000000000000000000000000000000815260040161131c90612460565b60405180910390fd5b818160020154101561136c576040517f08c379a0000000000000000000000000000000000000000000000000000000008152600401611363906128d9565b60405180910390fd5b81816002016000828254611380919061251b565b925050819055503373ffffffffffffffffffffffffffffffffffffffff166108fc839081150290604051600060405180830381858888f193505050501580156113cd573d6000803e3d6000fd5b507fd99c55dd38c6e06bcc3bd5dda0cb5e07e70dd24eee1bdcb0d940a2bc81b133dd33836040516113ff92919061254f565b60405180910390a15050565b600460003373ffffffffffffffffffffffffffffffffffffffff1673ffffffffffffffffffffffffffffffffffffffff16815260200190815260200160002060030160009054906101000a900460ff1661149a576040517f08c379a0000000000000000000000000000000000000000000000000000000008152600401611491906123f4565b60405180910390fd5b600080600083815260200190815260200160002090508060020160009054906101000a900473ffffffffffffffffffffffffffffffffffffffff1673ffffffffffffffffffffffffffffffffffffffff163373ffffffffffffffffffffffffffffffffffffffff1614611542576040517f08c379a000000000000000000000000000000000000000000000000000000000815260040161153990612945565b60405180910390fd5b8060040160009054906101000a900460ff1615611594576040517f08c379a000000000000000000000000000000000000000000000000000000000815260040161158b906129b1565b60405180910390fd5b60018160040160006101000a81548160ff0219169083151502179055505050565b60026020528060005260406000206000915090508060000154908060010160009054906101000a900473ffffffffffffffffffffffffffffffffffffffff16908060020154908060030154908060040154908060050160009054906101000a900460ff16905086565b60046020528060005260406000206000915090508060000154908060010160009054906101000a900473ffffffffffffffffffffffffffffffffffffffff16908060020154908060030160009054906101000a900460ff16908060030160019054906101000a900460ff16905085565b600080600083815260200190815260200160002090508060040160009054906101000a900460ff166116f5576040517f08c379a00000000000000000000000000000000000000000000000000000000081526004016116ec90612a1d565b60405180910390fd5b8060040160019054906101000a900460ff1615611747576040517f08c379a000000000000000000000000000000000000000000000000000000000815260040161173e90612a89565b60405180910390fd5b6000600460008360020160009054906101000a900473ffffffffffffffffffffffffffffffffffffffff1673ffffffffffffffffffffffffffffffffffffffff1673ffffffffffffffffffffffffffffffffffffffff16815260200190815260200160002090506000600260008460010160009054906101000a900473ffffffffffffffffffffffffffffffffffffffff1673ffffffffffffffffffffffffffffffffffffffff1673ffffffffffffffffffffffffffffffffffffffff1681526020019081526020016000209050826003015482600201541015611860576040517f08c379a000000000000000000000000000000000000000000000000000000000815260040161185790612af5565b60405180910390fd5b8260030154826002016000828254611878919061251b565b9250508190555082600301548160020160008282546118979190612b15565b9250508190555060018160030160008282546118b39190612b15565b9250508190555060018160040160008282546118cf9190612b15565b9250508190555060018360040160016101000a81548160ff0219169083151502179055507f4c3ab42fece79b0f300ffbd9f5816668d48bd567031eb873e4d97dada6abd352848460010160009054906101000a900473ffffffffffffffffffffffffffffffffffffffff16836003015460405161194e93929190612b49565b60405180910390a150505050565b611964611d5a565b600260008373ffffffffffffffffffffffffffffffffffffffff1673ffffffffffffffffffffffffffffffffffffffff1681526020019081526020016000206040518060c0016040529081600082015481526020016001820160009054906101000a900473ffffffffffffffffffffffffffffffffffffffff1673ffffffffffffffffffffffffffffffffffffffff1673ffffffffffffffffffffffffffffffffffffffff1681526020016002820154815260200160038201548152602001600482015481526020016005820160009054906101000a900460ff1615151515815250509050919050565b60035481565b600460003373ffffffffffffffffffffffffffffffffffffffff1673ffffffffffffffffffffffffffffffffffffffff16815260200190815260200160002060030160009054906101000a900460ff16611ae3576040517f08c379a0000000000000000000000000000000000000000000000000000000008152600401611ada906123f4565b60405180910390fd5b60003411611b26576040517f08c379a0000000000000000000000000000000000000000000000000000000008152600401611b1d90612bcc565b60405180910390fd5b34600460003373ffffffffffffffffffffffffffffffffffffffff1673ffffffffffffffffffffffffffffffffffffffff1681526020019081526020016000206002016000828254611b789190612b15565b925050819055506001600460003373ffffffffffffffffffffffffffffffffffffffff1673ffffffffffffffffffffffffffffffffffffffff16815260200190815260200160002060030160016101000a81548160ff0219169083151502179055507f1a1293d7af3357cec67893722572b0342502edfe63a5fd97b5d68cb68321d9b13334604051611c0b92919061254f565b60405180910390a1565b60006020528060005260406000206000915090508060000154908060010160009054906101000a900473ffffffffffffffffffffffffffffffffffffffff16908060020160009054906101000a900473ffffffffffffffffffffffffffffffffffffffff16908060030154908060040160009054906101000a900460ff16908060040160019054906101000a900460ff16905086565b6040518060c0016040528060008152602001600073ffffffffffffffffffffffffffffffffffffffff168152602001600073ffffffffffffffffffffffffffffffffffffffff168152602001600081526020016000151581526020016000151581525090565b6040518060a0016040528060008152602001600073ffffffffffffffffffffffffffffffffffffffff168152602001600081526020016000151581526020016000151581525090565b6040518060c0016040528060008152602001600073ffffffffffffffffffffffffffffffffffffffff1681526020016000815260200160008152602001600081526020016000151581525090565b600080fd5b600080fd5b6000819050919050565b611dc581611db2565b8114611dd057600080fd5b50565b600081359050611de281611dbc565b92915050565b600060208284031215611dfe57611dfd611da8565b5b6000611e0c84828501611dd3565b91505092915050565b611e1e81611db2565b82525050565b600073ffffffffffffffffffffffffffffffffffffffff82169050919050565b6000611e4f82611e24565b9050919050565b611e5f81611e44565b82525050565b60008115159050919050565b611e7a81611e65565b82525050565b60c082016000820151611e966000850182611e15565b506020820151611ea96020850182611e56565b506040820151611ebc6040850182611e56565b506060820151611ecf6060850182611e15565b506080820151611ee26080850182611e71565b5060a0820151611ef560a0850182611e71565b50505050565b600060c082019050611f106000830184611e80565b92915050565b611f1f81611e44565b8114611f2a57600080fd5b50565b600081359050611f3c81611f16565b92915050565b600060208284031215611f5857611f57611da8565b5b6000611f6684828501611f2d565b91505092915050565b60a082016000820151611f856000850182611e15565b506020820151611f986020850182611e56565b506040820151611fab6040850182611e15565b506060820151611fbe6060850182611e71565b506080820151611fd16080850182611e71565b50505050565b600060a082019050611fec6000830184611f6f565b92915050565b600080fd5b600080fd5b600080fd5b60008083601f84011261201757612016611ff2565b5b8235905067ffffffffffffffff81111561203457612033611ff7565b5b6020830191508360018202830111156120505761204f611ffc565b5b9250929050565b6000806020838503121561206e5761206d611da8565b5b600083013567ffffffffffffffff81111561208c5761208b611dad565b5b61209885828601612001565b92509250509250929050565b600080604083850312156120bb576120ba611da8565b5b60006120c985828601611f2d565b92505060206120da85828601611dd3565b9150509250929050565b6120ed81611e65565b82525050565b600081519050919050565b600082825260208201905092915050565b60005b8381101561212d578082015181840152602081019050612112565b60008484015250505050565b6000601f19601f8301169050919050565b6000612155826120f3565b61215f81856120fe565b935061216f81856020860161210f565b61217881612139565b840191505092915050565b600060408201905061219860008301856120e4565b81810360208301526121aa818461214a565b90509392505050565b6121bc81611db2565b82525050565b60006020820190506121d760008301846121b3565b92915050565b6121e681611e44565b82525050565b600060c08201905061220160008301896121b3565b61220e60208301886121dd565b61221b60408301876121b3565b61222860608301866121b3565b61223560808301856121b3565b61224260a08301846120e4565b979650505050505050565b600060a08201905061226260008301886121b3565b61226f60208301876121dd565b61227c60408301866121b3565b61228960608301856120e4565b61229660808301846120e4565b9695505050505050565b60c0820160008201516122b66000850182611e15565b5060208201516122c96020850182611e56565b5060408201516122dc6040850182611e15565b5060608201516122ef6060850182611e15565b5060808201516123026080850182611e15565b5060a082015161231560a0850182611e71565b50505050565b600060c08201905061233060008301846122a0565b92915050565b600060c08201905061234b60008301896121b3565b61235860208301886121dd565b61236560408301876121dd565b61237260608301866121b3565b61237f60808301856120e4565b61238c60a08301846120e4565b979650505050505050565b600082825260208201905092915050565b7f4e6f74206120636c69656e740000000000000000000000000000000000000000600082015250565b60006123de600c83612397565b91506123e9826123a8565b602082019050919050565b6000602082019050818103600083015261240d816123d1565b9050919050565b7f496e76616c696420616d6f756e74000000000000000000000000000000000000600082015250565b600061244a600e83612397565b915061245582612414565b602082019050919050565b600060208201905081810360008301526124798161243d565b9050919050565b7f4e6f7420656e6f7567682062616c616e63650000000000000000000000000000600082015250565b60006124b6601283612397565b91506124c182612480565b602082019050919050565b600060208201905081810360008301526124e5816124a9565b9050919050565b7f4e487b7100000000000000000000000000000000000000000000000000000000600052601160045260246000fd5b600061252682611db2565b915061253183611db2565b9250828203905081811115612549576125486124ec565b5b92915050565b600060408201905061256460008301856121dd565b61257160208301846121b3565b9392505050565b7f496e76616c696420726964657200000000000000000000000000000000000000600082015250565b60006125ae600d83612397565b91506125b982612578565b602082019050919050565b600060208201905081810360008301526125dd816125a1565b9050919050565b7f496e73756666696369656e742062616c616e6365000000000000000000000000600082015250565b600061261a601483612397565b9150612625826125e4565b602082019050919050565b600060208201905081810360008301526126498161260d565b9050919050565b7f46617265206d757374206265203e203000000000000000000000000000000000600082015250565b6000612686601083612397565b915061269182612650565b602082019050919050565b600060208201905081810360008301526126b581612679565b9050919050565b60006080820190506126d160008301876121b3565b6126de60208301866121dd565b6126eb60408301856121dd565b6126f860608301846121b3565b95945050505050565b600061270c82611db2565b91507fffffffffffffffffffffffffffffffffffffffffffffffffffffffffffffffff820361273e5761273d6124ec565b5b600182019050919050565b7f416c7265616479207265676973746572656420617320636c69656e7400000000600082015250565b600061277f601c83612397565b915061278a82612749565b602082019050919050565b600060208201905081810360008301526127ae81612772565b9050919050565b7f416c726561647920726567697374657265642061732072696465720000000000600082015250565b60006127eb601b83612397565b91506127f6826127b5565b602082019050919050565b6000602082019050818103600083015261281a816127de565b9050919050565b7f4e6f742061207269646572000000000000000000000000000000000000000000600082015250565b6000612857600b83612397565b915061286282612821565b602082019050919050565b600060208201905081810360008301526128868161284a565b9050919050565b7f496e73756666696369656e74206561726e696e67730000000000000000000000600082015250565b60006128c3601583612397565b91506128ce8261288d565b602082019050919050565b600060208201905081810360008301526128f2816128b6565b9050919050565b7f4f6e6c7920636c69656e742063616e20636f6d706c6574652074726970000000600082015250565b600061292f601d83612397565b915061293a826128f9565b602082019050919050565b6000602082019050818103600083015261295e81612922565b9050919050565b7f5472697020616c726561647920636f6d706c6574656400000000000000000000600082015250565b600061299b601683612397565b91506129a682612965565b602082019050919050565b600060208201905081810360008301526129ca8161298e565b9050919050565b7f54726970206e6f7420636f6d706c657465000000000000000000000000000000600082015250565b6000612a07601183612397565b9150612a12826129d1565b602082019050919050565b60006020820190508181036000830152612a36816129fa565b9050919050565b7f416c726561647920706169640000000000000000000000000000000000000000600082015250565b6000612a73600c83612397565b9150612a7e82612a3d565b602082019050919050565b60006020820190508181036000830152612aa281612a66565b9050919050565b7f496e73756666696369656e7420636c69656e742062616c616e63650000000000600082015250565b6000612adf601b83612397565b9150612aea82612aa9565b602082019050919050565b60006020820190508181036000830152612b0e81612ad2565b9050919050565b6000612b2082611db2565b9150612b2b83611db2565b9250828201905080821115612b4357612b426124ec565b5b92915050565b6000606082019050612b5e60008301866121b3565b612b6b60208301856121dd565b612b7860408301846121b3565b949350505050565b7f4d7573742073656e6420736f6d65204554480000000000000000000000000000600082015250565b6000612bb6601283612397565b9150612bc182612b80565b602082019050919050565b60006020820190508181036000830152612be581612ba9565b905091905056fea26469706673582212205f2e105ce589ba99e6ba90fcc788f5baa03314d7a60227be9394f1a3d89b4ec364736f6c634300081c0033",
  "linkReferences": {},
  "deployedLinkReferences": {}
}